:020000040800F2
:1000000000100020A50700089107000893070008CA
:1000100000000000000000000000000000000000E0
:10002000000000000000000000000000950700082C
:100030000000000000000000970700089907000872
:10004000F507000800000000F5070008F5070008A4
:10005000F5070008F5070008F5070008F507000890
:1000600000000000F5070008F5070008F507000884
:10007000F5070008F5070008F50700080000000074
:10008000F50700080000000000000000F507000868
:1000900000000000F5070008F5070008F507000854
:1000A00000000000F507000800000000F507000848
:1000B0000000000000000000000000000000000040
:1000C00010B5064C2378002B07D1054B002B02D02E
:1000D000044800E000BF0123237010BD3C04002051
:1000E0000000000044200008044B10B5002B03D092
:1000F0000349044800E000BF10BDC04600000000F6
:100100004004002044200008002243088B4274D39E
:1001100003098B425FD3030A8B4244D3030B8B4208
:1001200028D3030C8B420DD3FF22090212BA030C11
:100130008B4202D31212090265D0030B8B4219D3F2
:1001400000E0090AC30B8B4201D3CB03C01A524112
:10015000830B8B4201D38B03C01A5241430B8B425A
:1001600001D34B03C01A5241030B8B4201D30B0343
:10017000C01A5241C30A8B4201D3CB02C01A52416A
:10018000830A8B4201D38B02C01A5241430A8B422D
:1001900001D34B02C01A5241030A8B4201D30B0216
:1001A000C01A5241CDD2C3098B4201D3CB01C01A30
:1001B000524183098B4201D38B01C01A524143093A
:1001C0008B4201D34B01C01A524103098B4201D328
:1001D0000B01C01A5241C3088B4201D3CB00C01A95
:1001E000524183088B4201D38B00C01A524143080D
:1001F0008B4201D34B00C01A5241411A00D2014632
:10020000524110467047FFE701B5002000F006F8A4
:1002100002BDC0460029F7D076E770477047C04658
:10022000F0B5D6464F464646C0B588B014220021E8
:1002300003A801F031FE324B59698020C00301430D
:1002400059615A6902400092009A596980208002DF
:10025000014359615A6902400192019A5A69802109
:10026000C9020A435A615B690B400293029B254F06
:1002700000220221380000F034FC234B9A469026DD
:10028000F60500221900300000F02BFC1F4B9846A9
:1002900000220221180000F024FC0125039500240F
:1002A0000494059403A9380000F04EFB02239946FC
:1002B000039304950594069403A9380000F044FBC9
:1002C0005346039304950594069403A9300000F067
:1002D0003BFB982303930494059403A9300000F09A
:1002E00033FB4B46039304950594069403A94046BB
:1002F00000F02AFB08B0E0BCBA46B146A846F0BD03
:1003000000100240001400482106000000040048CC
:1003100030B587B001A9094B0A0031CB31C21800B2
:100320001B681360838893800A231222044801F01B
:10033000A1FC642000F0AAFA07B030BD5C200008E0
:10034000A404002010B59024E4050022012120001F
:1003500000F0C7FB00222021200000F0C2FB002299
:100360000221024800F0BDFB10BDC0460014004849
:10037000F8B5434F00220221380000F0B2FB80267E
:10038000B6009024E40501223100200000F0A9FB12
:100390008025ED0001222900200000F0A2FB64204E
:1003A00000F074FA01220221380000F09AFB0022CA
:1003B0003100200000F095FB01222900200000F010
:1003C00090FB642000F062FA01220221380000F064
:1003D00088FB01223100200000F083FB002229006D
:1003E000200000F07EFB642000F050FA0022022181
:1003F000380000F076FB00223100200000F071FB95
:1004000001222900200000F06CFBFA2000F03EFAE7
:1004100000220221380000F064FB0122310020009C
:1004200000F05FFB00222900200000F05AFBFA20B8
:1004300000F02CFA01220221380000F052FB0022C9
:100440003100200000F04DFB00222900200000F0C8
:1004500048FBFA2000F01AFA00220221380000F0CE
:1004600040FB00223100200000F03BFB002229006D
:10047000200000F036FBFA2000F008FAF8BDC04674
:100480000004004810B50021014801F0C9F910BD71
:100490005C04002072B6FEE700B58FB01022002188
:1004A0000AA801F0F9FC0822002108A801F0F4FCD8
:1004B0001C22002101A801F0EFFC2348234B03601C
:1004C000FA239B01436000238360FA229200C260FA
:1004D0000361836100F0F6FF00282AD180235B01CD
:1004E0000A930AA9184801F009F9002823D11648EF
:1004F00001F014F8002820D100230893099308A9DB
:10050000114801F0FFF9002819D1602301939533B8
:10051000FF330293002303930593002201A90A48A5
:1005200001F068F800280CD1074800F0D1F80FB0AE
:1005300000BDFFF7AFFFFFF7ADFFFFF7ABFFFFF722
:10054000A9FFFFF7A7FFC0465C040020000400409D
:1005500010B50B480B4B0360E1235B0243600023A3
:100560008360C36003610C2242618361C3610362E3
:10057000436201F039FC002800D110BDFFF78AFF6B
:10058000A40400200038014000B595B01C220021D1
:1005900009A801F081FC1022002104A801F07CFCD4
:1005A00010220021684601F077FC02230893012203
:1005B0000B920F320C92109300231193802212039E
:1005C0001292139308A800F093FA002817D107237A
:1005D0000493053B0593002306930793002104A889
:1005E00000F00CFD00280CD101230093002302939E
:1005F000684600F0B3FD002805D115B000BDFFF737
:1006000049FFFFF747FFFFF745FF000010B500F077
:100610001BF9FFF7B9FFFFF703FEFFF73DFFFFF7F9
:1006200097FFFFF72FFFFFF773FEFFF78BFEFFF734
:100630009FFE07E00E4B00221A7090200121C0059A
:1006400000F04FFA90208021C00500F043FA002806
:10065000F8D1074B1B78002BECD10133044A1370FF
:10066000903001220121C00500F03BFAEAE7C046C4
:100670005804002082B00A4B996901221143996104
:1006800099690A400092009ADA69802149050A4373
:10069000DA61DB690B400193019B02B07047C046F1
:1006A0000010024082B00268074B9A4201D002B0AB
:1006B0007047064AD16902231943D161D2691340B8
:1006C0000193019BF3E7C046000400400010024084
:1006D00010B586B004001422002101A801F0DCFB53
:1006E00022680F4B9A4201D006B010BD0D4A5169E5
:1006F0008020800201435161536903400093009BB5
:10070000402301933E3B0293002303930493013360
:100710000593902001A9C00500F016F9E4E7C04652
:10072000000400400010024010B588B004001422FC
:10073000002103A801F0B0FB2268134B9A4201D0BC
:1007400008B010BD114B99698020C0010143996127
:100750009A6902400192019A5A69802189020A43EA
:100760005A615B690B400293029B042303930E338F
:100770000493113B0593032206920793902003A94B
:10078000C00500F0E1F8DBE700380140001002404E
:10079000FEE7FEE77047704710B500F065F810BD42
:1007A000704700000D4885460D480E490E4A00234B
:1007B00002E0D458C4500433C4188C42F9D30B4A15
:1007C0000B4C002301E013600432A242FBD3FFF77D
:1007D000E7FF01F03FFBFFF719FFFEE700100020E5
:1007E000000000203C040020C02000083C04002041
:1007F00050050020FEE7000010B504000F4B1978EB
:10080000FA208000FFF780FC01000D4B1868FFF70D
:100810007BFC00F07DF800280DD1032C01D90120CC
:100820000AE0013000222100404200F041F8054B6F
:100830001C60002000E0012010BDC0460400002024
:10084000000000200800002010B5064A136810219F
:100850000B4313600320FFF7CFFFFFF70BFF0020D0
:1008600010BDC04600200240034A1168034B1B78AC
:100870005B1813607047C046280500200400002064
:10088000014B18687047C0462805002070B5040069
:10089000FFF7F6FF0500631C02D0044B1B78E41839
:1008A000FFF7EEFF401BA042FAD370BD040000200A
:1008B00070B5002811DB8308134EC0339B009D598F
:1008C00003242040C000FF2214008440A543890176
:1008D0000A4082402A439A5170BD0F230340083BCF
:1008E0009B0806339B00094A944663445C680322D4
:1008F0001040C000FC3215008540AC4389010A401D
:10090000824022435A60E7E700E100E000ED00E0AA
:10091000013880235B0498420FD2094A506009488D
:10092000036A1B021B0AC02109060B430362002352
:10093000936007331360002070470120FCE7C04636
:1009400010E000E000ED00E0F0B583B0002357E0D8
:1009500084685F000326BE40B4432600CC68BC40D8
:1009600034438460446894434A6816090122324043
:100970009A402243426053E0DC080834A400265821
:1009800005321A4092000F279740BE430F699740E7
:100990003A003243225057E0032600E00026A640EA
:1009A00034003C4302329200444E9451444A14684D
:1009B000EA432600AE434F68FF0301D52C432600CF
:1009C0003F4C26606468260016404F68BF0301D57F
:1009D0002C4326003A4C6660A468260016404F68F7
:1009E000FF0201D52C432600354CA660E468224066
:1009F0004E68B60201D52A002243314CE260013331
:100A00000C682200DA4057D001229A402500154098
:100A10001442F4D003244E683440013C012C97D991
:100A200003224C682240032A09D0C2685E000324D6
:100A3000B440A24314008A68B2402243C260032239
:100A40004C682240022A97D004685E0003221700F7
:100A5000B740BC434F683A40B24022430260C022D4
:100A600092024C681442CAD0164CA6690122164361
:100A7000A661A46922400192019A9A08941CA400DC
:100A80000E4EA75903241C40A4000F26A640B743CE
:100A90009026F605B04281D00B4EB04208D00B4EE6
:100AA000B04207D00A4EB04200D175E7052676E77E
:100AB000012674E7022672E703B0F0BD0000014092
:100AC00000040140001002400004004800080048F3
:100AD000000C004803690B4201D001207047002040
:100AE000FCE7002A01D0816170478162FCE70000C9
:100AF00070B582B0041E00D12EE20368DB0726D554
:100B0000AE4B5A680C231340042B18D0AB4B5A68D9
:100B10000C231340082B0ED06368012B3CD0002B14
:100B200051D1A64B1A68A6490A401A601A68A5490D
:100B30000A401A6036E0A14B5B68DB03ECD59F4BA3
:100B40001B689B0303D56368002B00D107E2236871
:100B50009B0772D5994B5B680C221A425DD0974B6C
:100B60005A680C231340082B53D0E368002B00D1A4
:100B700085E0924A136801210B431360FFF780FE62
:100B800005008E4B1B689B0770D4FFF779FE401B56
:100B90000228F6D90320E0E1884A116880235B022D
:100BA0000B4313606368002B25D0FFF769FE050037
:100BB000824B1B689B03CAD4FFF762FE401B64286C
:100BC000F6D90320C9E1052B09D07C4B1A687C4972
:100BD0000A401A601A687B490A401A60E2E7774BBC
:100BE00019688022D2020A431A60196880225202D0
:100BF0000A431A60D6E7FFF743FE05006F4B1B68F8
:100C00009B03A4D5FFF73CFE401B6428F6D90320C4
:100C1000A3E16A4B5B68DB03A7D4684B1B689B07A7
:100C200003D5E368012B00D09BE164490B68F822EF
:100C300093432269D20013430B6023681B0744D5FA
:100C4000E369002B2ED05D4A536A01210B435362A6
:100C5000FFF716FE0500594B5B6A9B0735D4FFF77B
:100C60000FFE401B0228F6D9032076E153490B689A
:100C7000F82293432269D20013430B60DDE74F4A09
:100C8000136801218B431360FFF7FAFD05004B4BFE
:100C90001B689B07D1D5FFF7F3FD401B0228F6D94F
:100CA00003205AE1454A536A01218B435362FFF7FF
:100CB000E7FD0500414B5B6A9B0706D5FFF7E0FDAA
:100CC000401B0228F6D9032047E123685B0700D4C4
:100CD00080E03A4BDB69DB000BD4384AD1698020D5
:100CE00040050143D161D36903400193019B012574
:100CF00000E00025344B1B68DB050ED5A368012BF3
:100D00001FD0002B34D12D4B1A6A01218A431A625D
:100D10001A6A03318A431A6218E02B4A1168802349
:100D20005B000B431360FFF7ABFD0600264B1B680F
:100D3000DB05E3D4FFF7A4FD801B6428F6D903206C
:100D40000BE11E4A136A01210B431362A368002BB7
:100D500024D0FFF795FD0600184B1B6A9B0737D47C
:100D6000FFF78EFD801B194B9842F5D90320F4E064
:100D7000052B09D0114B1A6A01218A431A621A6A9B
:100D800003318A431A62E1E70C4B1A6A04210A43D1
:100D90001A621A6A03390A431A62D7E7FFF770FD2D
:100DA0000600064B1B6A9B0712D5FFF769FD801BE7
:100DB000064B9842F5D90320CFE0C0460010024010
:100DC000FFFFFEFFFFFFFBFF0070004088130000E5
:100DD000012D33D02368DB0610D56369012B33D096
:100DE000053351D1654A536B04218B435363536BD5
:100DF000F4318B43A169C9000B435363236A002B71
:100E000000D1B0E05D4A51680C220A40082A00D1A6
:100E10008AE0022B4FD0594A136859490B4013609E
:100E2000FFF72EFD0400554B1B689B017AD5FFF799
:100E300027FD001B0228F6D903208EE04F4AD36914
:100E400050490B40D361C5E74C4B5A6B04210A4310
:100E50005A635A6B03390A435A63FFF711FD0500C1
:100E6000464B5B6B9B0706D4FFF70AFD401B02282D
:100E7000F6D9032071E041494B6BF8229343A269F4
:100E8000D20013434B63B9E73C4B5A6B04210A432E
:100E90005A635A6B03398A435A63FFF7F1FC050022
:100EA000364B5B6B9B07A9D5FFF7EAFC401B02287A
:100EB000F6D9032051E0314A136831490B401360E1
:100EC000FFF7DEFC05002D4B1B689B0106D5FFF7E5
:100ED000D7FC401B0228F6D903203EE0274BDA6AF4
:100EE0000F218A43E16A0A43DA625A6826490A40B6
:100EF000A16A606A01430A435A6019688022520459
:100F00000A431A60FFF7BCFC04001C4B1B689B01E2
:100F100006D4FFF7B5FC001B0228F6D903201CE01D
:100F200000201AE0002018E0012B1ED0134B5A6855
:100F3000D96A80235B021340606A834217D10F2372
:100F40000B40E16A8B4214D1F0239B031A40A36A41
:100F50009A4210D1002000E0012002B070BD0120B3
:100F6000FBE70120F9E70020F7E70120F5E7012082
:100F7000F3E70120F1E70120EFE7C046001002404F
:100F8000FFFFFFFEFFFFFFEFFFFFC2FF10B588B0BE
:100F900004AA164B13CB13C21B6813606A46144B8A
:100FA00013CB13C21B681360124B5A680C231340F7
:100FB000082B02D0104808B010BD910C073319401F
:100FC00004A8445C0B49C96A0B406946C95CD30359
:100FD00004D50948FFF798F86043ECE763011B1B51
:100FE0009801C01AC00000190002E4E78820000838
:100FF0009C2000080010024000127A0070B5040026
:101000000D00002800D17EE0434B1A6801231340F5
:101010008B420AD240490B68012293432B430B6059
:101020000B681A40AA4200D06FE023689A070ED5D9
:101030005B0705D5394A5168E023DB000B43536059
:10104000364A5368F0218B43A1680B4353602368F1
:10105000DB072DD56368012B1ED0022B22D02F4A2F
:101060001268920753D52D494A68032082431343DF
:101070004B60FFF705FC0600284B5B680C221A400A
:1010800063689B009A4213D0FFF7FAFB801B244B46
:101090009842F1D9032035E0204A12689203E2D445
:1010A00001202FE01D4A12689201DCD4012029E0C2
:1010B000194B1A6801231340AB4209D916490B6832
:1010C000012293432B430B600B681A40AA4220D1A4
:1010D00023685B0706D5114A536812490B40E16843
:1010E0000B435360FFF752FF0C4B5A6812090F2352
:1010F00013400D4AD35CD8400C4B18600320FFF717
:101100007BFB002070BD0120FCE70120FAE70120F5
:10111000F8E70120F6E7C046002002400010024038
:1011200088130000FFF8FFFF702000080000002077
:10113000014B18687047C0460000002010B5FFF74B
:10114000F7FF044B5A68120A07231340024AD35C84
:10115000D84010BD001002408020000870B582B059
:1011600004000368DB0337D53D4BDB69DB0049D462
:101170003B4AD169802040050143D161D3690340D6
:101180000193019B0125374B1B68DB053CD5344B94
:101190001A6AC0239B00110019401A4213D06268DA
:1011A00013408B420FD02E4B186A2F4A02401E6A02
:1011B0008021490231431962196A2C4E314019626B
:1011C0001A62C30734D4264A136A27490B40616860
:1011D0000B431362012D3AD02368DB0706D5204A62
:1011E000136B03218B43A1680B43136323689B0696
:1011F00032D51B4A136B10218B43E1680B431363F9
:1012000000202AE00025BEE7164A116880235B0013
:101210000B431360FFF734FB0600124B1B68DB0522
:10122000B5D4FFF72DFB801B6428F6D9032014E00A
:10123000FFF726FB06000A4B1B6A9B07C3D4FFF788
:101240001FFB801B0A4B9842F5D9032005E0D369A8
:1012500008490B40D361BFE7002002B070BDC04613
:101260000010024000700040FFFCFFFFFFFFFEFF88
:1012700088130000FFFFFFEF30B5036A012293439C
:101280000362036A426884697325AC430D682C438A
:101290000225AB438D682B43114DA84205D0114D5B
:1012A000A84202D0104DA84205D10825AB43CD6815
:1012B0002B430425AB430A4DA84205D0094DA84253
:1012C00002D0094DA84205D1084D2A404D692A4354
:1012D0008D692A43426084614A684263036230BD7B
:1012E000002C01400044014000480140FFFCFFFF8A
:1012F00070B5036A184A13400362036A4468C269FE
:101300007325AA430E681643144A13408A681202D2
:101310001343134A904216D0114A904205D0114A05
:10132000904202D0104A904207D1104A22404C69A4
:10133000240114438A6915012C434460C6614A683C
:10134000C263036270BD0A4A1A40CB681B02134392
:10135000084A1340E0E7C046FFFEFFFFFFFDFFFF26
:10136000002C01400044014000480140FFCFFFFF36
:10137000FFF7FFFFFFFBFFFF30B5036A114A134081
:101380000362036A4568C2690F4C22400C6824025C
:1013900022430E4C1C408B681B0323430C4CA04281
:1013A00005D00C4CA04202D00B4CA04204D10B4CF7
:1013B00025404C69A40125434560C2614A68026426
:1013C000036230BDFFEFFFFFFF8CFFFFFFDFFFFF7A
:1013D000002C01400044014000480140FFBFFFFFD6
:1013E00030B5036A046A0125AC4304628469EF35B1
:1013F000AC43120122430A24A3430B4382610362DC
:1014000030BD000030B5036A1024A3430362846931
:10141000036A054D2C4012032243A024A343090173
:1014200019438261016230BDFF0FFFFF83687022A4
:1014300093430B4307210B438360704770470000C1
:1014400003681A4A904202D0194A904203D170228E
:1014500093434A681343154A90420BD0144A904272
:1014600008D0144A904205D0134A904202D0134A41
:10147000904203D1124A1340CA6813438022934317
:101480004A69134303608B68C3620B688362074B2E
:10149000984205D0084B984202D0084B984201D19F
:1014A0000B690363012343617047C046002C014070
:1014B000000400400020004000440140004801407A
:1014C000FFFCFFFF70B5041E26D03D23C35C002B3C
:1014D0001CD03D2502236355210001C9FFF7B0FF51
:1014E00001234622A354083AA3540132A3540132E3
:1014F000A3540132A3540132A3540132A354013244
:10150000A3540132A3546355002070BD3C33002224
:10151000C254FFF7C7F8DCE70120F6E770B5041EF8
:1015200026D03D23C35C002B1CD03D2502236355F0
:10153000210001C9FFF784FF01234622A354083A82
:10154000A3540132A3540132A3540132A3540132F3
:10155000A3540132A3540132A3540132A35463555E
:10156000002070BD3C330022C254FFF767FFDCE768
:101570000120F6E730B5036A102293430362036A41
:1015800045688469164A14400A68120214432022EE
:1015900093438A6812011343124A904216D0114AAB
:1015A000904205D0104A904202D0104A904207D192
:1015B0000F4A2A404D69AD0015438A6992001543D0
:1015C000456084614A688263036230BD8022934330
:1015D0001A00CB681B01134340229343DFE7C04648
:1015E000FF8CFFFF002C01400044014000480140F7
:1015F000FFF3FFFF70B504000D003C23C35C012B1B
:1016000000D16AE03C230121C154082A50D01CD8E3
:10161000002A38D0042A16D129000068FFF7AAFF53
:101620002268916980231B010B43936122689369AF
:101630002B490B40936121688B692A69120213437D
:101640008B6100201BE0080019E00C2A16D129004C
:101650000068FFF791FE2268D16980231B010B43CC
:10166000D3612268D3691E490B40D3612168CB69DD
:101670002A6912021343CB61002000E001203C23C1
:101680000022E25470BD29000068FFF7F5FD2268D2
:10169000936908210B4393612268936904398B4352
:1016A00093612268936929690B4393610020E6E7FF
:1016B00029000068FFF71CFE2268D36908210B434C
:1016C000D3612268D36904398B43D3612268D3691B
:1016D00029690B43D3610020D1E70220D2E7C0463D
:1016E000FFFBFFFF30B58468034D2C401B02134302
:1016F0000B432343836030BDFF00FFFF10B50400A0
:101700003C23C35C012B00D178E03C230122C2546E
:1017100001330132C2540268936839480340936030
:101720000B68602B50D02AD8402B58D00CD9502BA6
:1017300023D1CA6849682068FFF752FE502120680B
:10174000FFF774FE002005E0202B0ED009D9302BC6
:101750000BD001203D230122E254013B0022E25440
:1017600010BD002B01D0102B05D119002068FFF708
:101770005DFE0020EEE70120ECE70120EAE7802291
:101780005201934236D08022920193420DD1CB6810
:101790004A6889682068FFF7A5FF2268916880235E
:1017A000DB010B4393600020D4E7702B24D1CB687E
:1017B0004A6889682068FFF795FF22689368772157
:1017C0000B4393600020C5E7CA6849682068FFF7AB
:1017D00019FE60212068FFF729FE0020BAE7CA68D9
:1017E00049682068FFF7FCFD40212068FFF71EFED6
:1017F0000020AFE70020ADE70120ABE70220AFE714
:101800008800FFFF10B51F23194001248C40036A94
:10181000A3430362036A8A401343036210BD0000BE
:1018200010B5040000292CD13E23C35C013B5A1E95
:101830009341DBB2002B58D100293BD13E33022229
:10184000E25401222068FFF7DDFF2368294A934212
:1018500005D0294A934202D0284A934204D1596CB8
:10186000802212020A435A642368224A934231D0EA
:10187000234A93422ED01A6801210A431A6000209D
:1018800034E0042908D008290DD04123C35C013B72
:101890005A1E9341DBB2CDE73F23C35C013B5A1E86
:1018A0009341DBB2C6E74023C35C013B5A1E934120
:1018B000DBB2BFE7042905D0082907D04123022263
:1018C000E254BEE73F230222E254BAE74023022259
:1018D000E254B6E7996807220A40062A07D01A6838
:1018E00001210A431A60002000E0012010BD002001
:1018F000FCE7C046002C0140004401400048014084
:101900000004004030B53C23C35C012B21D03C23B4
:101910000122C25401330132C25403685A689C68E0
:101920007025AA430D682A435A6003680A4A934205
:1019300002D00A4A934204D1802294434A68144355
:101940009C603D230122C254013B0022C25400206E
:1019500030BD0220FCE7C046002C014000040040DE
:1019600010B5040083680269134342691343C269D6
:10197000134301680A684A48024013430B60226817
:10198000536848490B40E1680B435360226AA369DE
:101990001A4321688B684448034013438B60434BD0
:1019A0001A6B03231340022B27D022D8002B26D0FA
:1019B000012B26D10333E06980221202904224D009
:1019C000042B65D054D8002B5CD0022B4ED1384864
:1019D00063685B0818186168FEF796FB0004000C4A
:1019E0000200103A334B9A4257D82368D86000203F
:1019F00044E0032B07D1013BDDE70823DBE70023AD
:101A0000D9E71023D7E71023D5E7042B2BD020D814
:101A1000002B22D0022B1AD12548400063685B08B6
:101A2000C0186168FEF770FB83B20004000C01006F
:101A30001039204A91422ED80F2293431A004008B1
:101A40000723184010432368D860002016E00120C7
:101A500014E0082BE1D0012010E0FFF76FFB002815
:101A6000DBD100200AE0FFF791FAF8E7012005E05A
:101A7000082B02D180200002AAE701200023636620
:101A8000A36610BDFFF75AFB0028A1D10020F5E79F
:101A9000FFF77CFAF8E70120F0E70120EEE7C04607
:101AA000F369FFFFFFCFFFFFFFF4FFFF00100240CD
:101AB00000127A00EFFF0000436ADB0706D50268D8
:101AC00053682C490B40816A0B435360436A9B0760
:101AD00006D50268536828490B40C16A0B4353601E
:101AE000436A5B0706D50268536824490B40016BC3
:101AF0000B435360436A1B0706D5026853682049AD
:101B00000B40416B0B435360436ADB0606D502680A
:101B100093681C490B40816B0B439360436A9B069F
:101B200006D50268936818490B40C16B0B4393605C
:101B3000436A5B060BD50268536814490B40016C7D
:101B40000B43536080235B03026C9A420AD0436AC2
:101B50001B0606D5026853680D490B40816C0B4388
:101B600053607047026853680A490B40416C0B434D
:101B70005360ECE7FFFFFDFFFFFFFEFFFFFFFBFFF2
:101B8000FF7FFFFFFFEFFFFFFFDFFFFFFFFFEFFF25
:101B9000FFFFF7FFFFFF9FFFF8B5CE46474680B532
:101BA00006000D0017009946089B98463368DC69CB
:101BB0002C40641B63425C41BC4253D14346013319
:101BC000F4D0FEF75DFE4B46C01A40452CD8434684
:101BD000002B29D033681A685207E7D5DA69120555
:101BE000E4D5802212011A62EFF31080012282F301
:101BF000108831680B681E4C23400B6080F31088FE
:101C0000EFF3108082F3108831688B6893438B6008
:101C100080F310882023B367F3677F32B3505433C7
:101C20000022F25403201EE0EFF31080012282F321
:101C3000108831680B680E4C23400B6080F31088CD
:101C4000EFF3108082F3108831688B6893438B60C8
:101C500080F310882023B367F36754330022F254D3
:101C6000032000E00020C0BCB946B046F8BDC04625
:101C70005FFEFFFFF0B5C64600B582B004000D0060
:101C800090461E00836F202B66D1002969D0002A60
:101C900069D080235B0182689A421ED07423E35C82
:101CA000012B62D074230122E2540C330022E25053
:101CB0005F3BA367FEF7E4FD070050234246E25274
:101CC0000233E25280235B01A2689A420CD00023C7
:101CD000984674230022E2541DE00369002BDDD1F5
:101CE000CB07DBD5012038E02369002B02D000238D
:101CF0009846EEE7A8460025EBE743461B88DB0540
:101D0000DB0D2268138502239C46E0445223E25AED
:101D1000013A92B2E2525223E35A9BB2002B0FD007
:101D200000963B00002280212000FFF735FF0028AD
:101D30001DD1002DE1D02B78226813850135E5E710
:101D400000963B00002240212000FFF725FF0028DD
:101D50000FD12023A36700E0022002B080BCB84668
:101D6000F0BD0120F9E70120F7E70220F5E70320A5
:101D7000F3E70320F1E7000030B583B004008023CF
:101D80000022C250FEF77CFD050023681B681B077C
:101D90000DD423681B685B0716D42023A367E36771
:101DA000002323667422A354002003B030BD802199
:101DB0000C4B00930300002289032000FFF7ECFE88
:101DC0000028E6D00320F0E78021064B00932B008B
:101DD0000022C9032000FFF7DFFE0028DDD003202A
:101DE000E3E7C046FFFFFF0110B5041E2ED0836F4E
:101DF000002B21D02423A3672268136801218B4381
:101E000013602000FFF7ACFD012814D0636A002B9B
:101E100018D1226853680E490B40536022689368BA
:101E200008210B4393602268136807390B43136042
:101E30002000FFF7A1FF10BD74330022C254FEF74B
:101E400073FCD7E72000FFF737FEE2E70120F2E757
:101E5000FFF7FFFF70B50C4D0C4E761BB61005D08A
:101E6000002408CD01349847A642FAD100F0EAF8E0
:101E7000074D084E761BB61005D0002408CD01345E
:101E80009847A642FAD170BDB4200008B4200008DB
:101E9000B4200008BC200008F0B5050083074AD034
:101EA000541E002A44D003000322CEB202E00135C2
:101EB000013C3DD301332E701342F8D1032C2FD9AE
:101EC000FF220A40150215432A0415430F2C35D969
:101ED0002700103F3F093E01B4461E001A0010368D
:101EE0006644156055609560D5601032B242F8D1F5
:101EF0000F260C2201373F012640DB193700224212
:101F000017D03E1FB608B400A4461A001C1D644436
:101F100020C2A242FCD103240136B6009B193C40EA
:101F2000002C05D0C9B21C19197001339C42FBD199
:101F3000F0BD3400F4E714000300BFE72700E0E73A
:101F4000034B10B5002B02D0024800F005F810BD7D
:101F500000000000691F000810B5010000230022E6
:101F6000002000F019F810BD70B5074D074C641B38
:101F7000A41005D0013CA300EB589847002CF9D1E0
:101F800000F066F870BDC046BC200008C020000804
:101F90007047C0467047C046F0B5D6464F464646E5
:101FA000C0B5264F82B006003868924698468946EA
:101FB000FFF7EEFF224B1B680193A423019A5B00FD
:101FC000D558002D2ED06C681F2C30DC002E0FD180
:101FD000631C6B604B460234A40038686351FFF702
:101FE000D9FF002002B0E0BCBA46B146A846F0BD19
:101FF000882251462800A300EB189950873AA24046
:102000008930FF3001681143016084214046490056
:102010005850022EDCD12B008D33FF3319680A4350
:102020001A60D5E715004D35FF35D550CBE7386838
:10203000FFF7B0FF01204042D4E7C046380400203B
:10204000B0200008F8B5C046F8BC08BC9E467047F2
:0C205000F8B5C046F8BC08BC9E467047BE
:10205C0048656C6C6F205061706572202121200DD9
:10206C000A00000000000000000000000102030450
:10207C00060708090000000001020304020304051E
:10208C00060708090A0B0C0D0E0F101000000000BB
:10209C000102030405060708090A0B0C0D0E0F10AC
:0820AC000000000010000020FC
:0820B400411F0008E9000008CB
:0420BC00C100000857
:1020C00000127A000100000004000000000000007F
:1020D00000000000FC02002064030020CC0300206C
:1020E00000000000000000000000000000000000F0
:1020F00000000000000000000000000000000000E0
:1021000000000000000000000000000000000000CF
:1021100000000000000000000000000000000000BF
:1021200000000000000000000000000000000000AF
:10213000000000000000000000000000000000009F
:10214000000000000000000000000000000000008F
:10215000000000000000000000000000000000007F
:10216000000000000000000000000000000000006F
:10217000000000000000000001000000000000005E
:102180000E33CDAB34126DE6ECDE05000B00000023
:10219000000000000000000000000000000000003F
:1021A000000000000000000000000000000000002F
:1021B000000000000000000000000000000000001F
:1021C000000000000000000000000000000000000F
:0C24F00000000000000000002C0500208F
:04000005080007A543
:00000001FF
