:020000040800F2
:1000000000100020B10700089D0700089F070008A6
:1000100000000000000000000000000000000000E0
:10002000000000000000000000000000A107000820
:100030000000000000000000A3070008A50700085A
:10004000010800080000000001080008010800087D
:10005000010800080108000801080008010800085C
:10006000000000000108000801080008010800085D
:10007000010800080108000801080008000000004D
:10008000010800080000000000000000010800084E
:10009000000000000108000801080008010800082D
:1000A000000000000108000800000000010800082E
:1000B0000000000000000000000000000000000040
:1000C00010B5064C2378002B07D1054B002B02D02E
:1000D000044800E000BF0123237010BD3C04002051
:1000E00000000000301B0008044B10B5002B03D0AB
:1000F0000349044800E000BF10BDC04600000000F6
:1001000040040020301B0008002243088B4274D3B7
:1001100003098B425FD3030A8B4244D3030B8B4208
:1001200028D3030C8B420DD3FF22090212BA030C11
:100130008B4202D31212090265D0030B8B4219D3F2
:1001400000E0090AC30B8B4201D3CB03C01A524112
:10015000830B8B4201D38B03C01A5241430B8B425A
:1001600001D34B03C01A5241030B8B4201D30B0343
:10017000C01A5241C30A8B4201D3CB02C01A52416A
:10018000830A8B4201D38B02C01A5241430A8B422D
:1001900001D34B02C01A5241030A8B4201D30B0216
:1001A000C01A5241CDD2C3098B4201D3CB01C01A30
:1001B000524183098B4201D38B01C01A524143093A
:1001C0008B4201D34B01C01A524103098B4201D328
:1001D0000B01C01A5241C3088B4201D3CB00C01A95
:1001E000524183088B4201D38B00C01A524143080D
:1001F0008B4201D34B00C01A5241411A00D2014632
:10020000524110467047FFE701B5002000F006F8A4
:1002100002BDC0460029F7D076E770477047C04658
:10022000F0B5D6464F464646C0B588B014220021E8
:1002300003A801F0A7FB324B59698020C00301439A
:1002400059615A6902400092009A596980208002DF
:10025000014359615A6902400192019A5A69802109
:10026000C9020A435A615B690B400293029B254F06
:1002700000220221380000F03AFC234B9A469026D7
:10028000F60500221900300000F031FC1F4B9846A3
:1002900000220221180000F02AFC01250395002409
:1002A0000494059403A9380000F054FB02239946F6
:1002B000039304950594069403A9380000F04AFBC3
:1002C0005346039304950594069403A9300000F067
:1002D00041FB982303930494059403A9300000F094
:1002E00039FB4B46039304950594069403A94046B5
:1002F00000F030FB08B0E0BCBA46B146A846F0BDFD
:1003000000100240001400482106000000040048CC
:10031000642810D8002808D0642806D08300181854
:1003200040000138064B586308E08300181840006D
:10033000034B586302E0024B00225A637047C046E9
:100340000004004070B50D001400020002210948AD
:1003500000F0CDFB80219026F6052A0089003000B0
:1003600000F0C5FB80212200C900300000F0BFFB77
:1003700070BDC0460004004810B5072833D880007F
:100380001C4B1B589F46012201210120FFF7DAFF79
:1003900010BD012201210020FFF7D4FFF8E7012260
:1003A00000210120FFF7CEFFF2E70022012101200A
:1003B000FFF7C8FFECE7012200210020FFF7C2FF92
:1003C000E6E7002201210020FFF7BCFFE0E7002262
:1003D00000210120FFF7B6FFDAE70022002100200C
:1003E000FFF7B0FFD4E7012201210120FFF7AAFFA8
:1003F000CEE7C046481B000810B59024E405002253
:100400000121200000F073FB01222021200000F0D8
:100410006EFB00220221024800F069FB10BDC046BD
:100420000014004810B50120FFF7A6FFFA24A4002D
:10043000200000F031FA0220FFF79EFF200000F0BC
:100440002BFA0320FFF798FF200000F025FA042084
:10045000FFF792FF0C4C200000F01EFA0520FFF77A
:100460008BFF200000F018FA0620FFF785FF200020
:1004700000F012FA0720FFF77FFF200000F00CFACF
:100480000020FFF779FF10BDC409000010B500215E
:10049000014801F0B5F910BD5C04002010B59020B2
:1004A0000121C00500F01CFB002810D19020012183
:1004B000C00500F015FB0028F8D0184A1378013366
:1004C000DBB21370022B02D9130000221A70134BF7
:1004D0001B78022B1BD00AD8002B11D0012B15D171
:1004E0000120FFF749FF1E20FFF712FF0EE0032B4C
:1004F0000CD10320FFF740FF5020FFF709FF05E074
:100500000020FFF739FF0020FFF702FF10BD022097
:10051000FFF732FF3220FFF7FBFEF7E75904002018
:1005200010B50121144800F0DBFA00280FD1012199
:10053000114800F0D5FA0028F9D0104A1378013399
:10054000DBB21370012B02D9130000221A700B4B7F
:100550001B78002B02D0012B07D010BD9020012268
:100560000121C00500F0C3FAF7E790200022012125
:10057000C00500F0BCFAF0E7001400485804002061
:1005800072B6FEE700B58FB0102200210AA801F074
:10059000F9F90822002108A801F0F4F91C22002131
:1005A00001A801F0EFF92248224B0360224B43607F
:1005B000002383600922C2600361836100F072FF3F
:1005C00000282AD180235B010A930AA9184801F068
:1005D00085F8002823D1164800F090FF002820D18C
:1005E00000230893099308A9114801F07BF900281A
:1005F00019D160230193F423FF3302930023039363
:100600000593002201A90A4800F0E4FF00280CD15C
:10061000074800F097F80FB000BDFFF7B1FFFFF7F4
:10062000AFFFFFF7ADFFFFF7ABFFFFF7A9FFC04636
:100630005C040020000400401F03000000B595B0DA
:100640001C22002109A801F09DF91022002104A814
:1006500001F098F910220021684601F093F9022375
:10066000089301220B920F320C92109300231193E6
:10067000802212031292139308A800F03FFA002878
:1006800018D107230493053B05937E33069300237B
:100690000793002104A800F0B7FC00280CD1012327
:1006A000009300230293684600F048FD002805D11E
:1006B00015B000BDFFF764FFFFF762FFFFF760FFB3
:1006C00010B500F0C7F8FFF7B9FFFFF7A9FDFFF776
:1006D00059FFFFF7DBFEFFF78FFEFFF7A3FEFFF7E3
:1006E000DDFEFFF71DFFFAE782B00A4B9969012290
:1006F0001143996199690A400092009ADA69802150
:1007000049050A43DA61DB690B400193019B02B0A2
:100710007047C0460010024082B00268074B9A4200
:1007200001D002B07047064AD16902231943D16152
:10073000D26913400193019BF3E7C04600040040D7
:100740000010024010B586B004001422002101A858
:1007500001F018F922680F4B9A4201D006B010BD83
:100760000D4A516980208002014351615369034061
:100770000093009B402301933E3B0293002303938D
:10078000049301330593902001A9C00500F0E2F81D
:10079000E4E7C0460004004000100240FEE7FEE728
:1007A0007047704710B500F065F810BD7047000045
:1007B0000D4885460D480E490E4A002302E0D458E4
:1007C000C4500433C4188C42F9D30B4A0B4C002399
:1007D00001E013600432A242FBD3FFF7E7FF01F010
:1007E000AFF8FFF76DFFFEE70010002000000020CB
:1007F0003C040020B01B00083C040020CC04002076
:10080000FEE7000010B504000F4B1978FA208000B5
:10081000FFF77AFC01000D4B1868FFF775FC00F03C
:100820007DF800280DD1032C01D901200AE0013008
:1008300000222100404200F041F8054B1C600020DE
:1008400000E0012010BDC046040000200000002090
:100850000800002010B5064A136810210B431360EE
:100860000320FFF7CFFFFFF73FFF002010BDC0467A
:1008700000200240034A1168034B1B785B18136089
:100880007047C046A404002004000020014B1868F3
:100890007047C046A404002070B50400FFF7F6FFBF
:1008A0000500631C02D0044B1B78E418FFF7EEFF31
:1008B000401BA042FAD370BD0400002070B5002890
:1008C00011DB8308134EC0339B009D590324204045
:1008D000C000FF2214008440A54389010A408240E1
:1008E0002A439A5170BD0F230340083B9B080633EF
:1008F0009B00094A944663445C6803221040C00090
:10090000FC3215008540AC4389010A4082402243F5
:100910005A60E7E700E100E000ED00E001388023E5
:100920005B0498420FD2094A50600948036A1B02CF
:100930001B0AC02109060B4303620023936007339F
:100940001360002070470120FCE7C04610E000E083
:1009500000ED00E0F0B583B0002357E084685F004D
:100960000326BE40B4432600CC68BC4034438460B8
:10097000446894434A681609012232409A4022434F
:10098000426053E0DC080834A400265805321A40BF
:1009900092000F279740BE430F6997403A003243B9
:1009A000225057E0032600E00026A64034003C43D6
:1009B00002329200444E9451444A1468EA4326009D
:1009C000AE434F68FF0301D52C4326003F4C266001
:1009D0006468260016404F68BF0301D52C432600EB
:1009E0003A4C6660A468260016404F68FF0201D5A5
:1009F0002C432600354CA660E46822404E68B602BF
:100A000001D52A002243314CE26001330C682200F8
:100A1000DA4057D001229A40250015401442F4D004
:100A200003244E683440013C012C97D903224C68C2
:100A30002240032A09D0C2685E000324B440A243C6
:100A400014008A68B2402243C26003224C682240EC
:100A5000022A97D004685E0003221700B740BC4307
:100A60004F683A40B24022430260C02292024C6872
:100A70001442CAD0164CA66901221643A661A46985
:100A800022400192019A9A08941CA4000E4EA75984
:100A900003241C40A4000F26A640B7439026F60569
:100AA000B04281D00B4EB04208D00B4EB04207D0BE
:100AB0000A4EB04200D175E7052676E7012674E7B5
:100AC000022672E703B0F0BD0000014000040140BF
:100AD000001002400004004800080048000C0048D4
:100AE00003690B4201D0012070470020FCE7002A77
:100AF00001D0816170478162FCE7000070B582B06F
:100B0000041E00D12EE20368DB0726D5AE4B5A68DF
:100B10000C231340042B18D0AB4B5A680C23134002
:100B2000082B0ED06368012B3CD0002B51D1A64B73
:100B30001A68A6490A401A601A68A5490A401A604C
:100B400036E0A14B5B68DB03ECD59F4B1B689B0336
:100B500003D56368002B00D107E223689B0772D599
:100B6000994B5B680C221A425DD0974B5A680C2354
:100B70001340082B53D0E368002B00D185E0924A44
:100B8000136801210B431360FFF780FE05008E4BB5
:100B90001B689B0770D4FFF779FE401B0228F6D92B
:100BA0000320E0E1884A116880235B020B43136055
:100BB0006368002B25D0FFF769FE0500824B1B6898
:100BC0009B03CAD4FFF762FE401B6428F6D90320BA
:100BD000C9E1052B09D07C4B1A687C490A401A6090
:100BE0001A687B490A401A60E2E7774B196880224D
:100BF000D2020A431A601968802252020A431A601C
:100C0000D6E7FFF743FE05006F4B1B689B03A4D597
:100C1000FFF73CFE401B6428F6D90320A3E16A4B92
:100C20005B68DB03A7D4684B1B689B0703D5E368AD
:100C3000012B00D09BE164490B68F82293432269A1
:100C4000D20013430B6023681B0744D5E369002BD4
:100C50002ED05D4A536A01210B435362FFF716FE03
:100C60000500594B5B6A9B0735D4FFF70FFE401B0D
:100C70000228F6D9032076E153490B68F822934302
:100C80002269D20013430B60DDE74F4A136801214C
:100C90008B431360FFF7FAFD05004B4B1B689B0766
:100CA000D1D5FFF7F3FD401B0228F6D903205AE106
:100CB000454A536A01218B435362FFF7E7FD050064
:100CC000414B5B6A9B0706D5FFF7E0FD401B0228FE
:100CD000F6D9032047E123685B0700D480E03A4B54
:100CE000DB69DB000BD4384AD16980204005014321
:100CF000D161D36903400193019B012500E00025E8
:100D0000344B1B68DB050ED5A368012B1FD0002BCD
:100D100034D12D4B1A6A01218A431A621A6A0331AF
:100D20008A431A6218E02B4A116880235B000B4348
:100D30001360FFF7ABFD0600264B1B68DB05E3D411
:100D4000FFF7A4FD801B6428F6D903200BE11E4A9F
:100D5000136A01210B431362A368002B24D0FFF711
:100D600095FD0600184B1B6A9B0737D4FFF78EFDD5
:100D7000801B194B9842F5D90320F4E0052B09D0CC
:100D8000114B1A6A01218A431A621A6A03318A4393
:100D90001A62E1E70C4B1A6A04210A431A621A6AC2
:100DA00003390A431A62D7E7FFF770FD0600064BC6
:100DB0001B6A9B0712D5FFF769FD801B064B984203
:100DC000F5D90320CFE0C04600100240FFFFFEFF30
:100DD000FFFFFBFF0070004088130000012D33D09F
:100DE0002368DB0610D56369012B33D0053351D15D
:100DF000654A536B04218B435363536BF4318B432C
:100E0000A169C9000B435363236A002B00D1B0E0F2
:100E10005D4A51680C220A40082A00D18AE0022B60
:100E20004FD0594A136859490B401360FFF72EFD04
:100E30000400554B1B689B017AD5FFF727FD001B6B
:100E40000228F6D903208EE04F4AD36950490B405F
:100E5000D361C5E74C4B5A6B04210A435A635A6B62
:100E600003390A435A63FFF711FD0500464B5B6BDC
:100E70009B0706D4FFF70AFD401B0228F6D9032082
:100E800071E041494B6BF8229343A269D2001343AE
:100E90004B63B9E73C4B5A6B04210A435A635A6BC4
:100EA00003398A435A63FFF7F1FC0500364B5B6B4D
:100EB0009B07A9D5FFF7EAFC401B0228F6D90320BF
:100EC00051E0314A136831490B401360FFF7DEFCF3
:100ED00005002D4B1B689B0106D5FFF7D7FC401B77
:100EE0000228F6D903203EE0274BDA6A0F218A4315
:100EF000E16A0A43DA625A6826490A40A16A606ACE
:100F000001430A435A601968802252040A431A6056
:100F1000FFF7BCFC04001C4B1B689B0106D4FFF7C9
:100F2000B5FC001B0228F6D903201CE000201AE0C3
:100F3000002018E0012B1ED0134B5A68D96A802379
:100F40005B021340606A834217D10F230B40E16AB2
:100F50008B4214D1F0239B031A40A36A9A4210D10A
:100F6000002000E0012002B070BD0120FBE701205D
:100F7000F9E70020F7E70120F5E70120F3E701207A
:100F8000F1E70120EFE7C04600100240FFFFFFFE3F
:100F9000FFFFFFEFFFFFC2FF10B588B004AA164B9A
:100FA00013CB13C21B6813606A46144B13CB13C2D6
:100FB0001B681360124B5A680C231340082B02D095
:100FC000104808B010BD910C0733194004A8445CC8
:100FD0000B49C96A0B406946C95CD30304D509486B
:100FE000FFF792F86043ECE763011B1B9801C01AFE
:100FF000C00000190002E4E7781B00088C1B000801
:101000000010024000127A0070B504000D000028A4
:1010100000D17EE0434B1A68012313408B420AD271
:1010200040490B68012293432B430B600B681A4025
:10103000AA4200D06FE023689A070ED55B0705D55A
:10104000394A5168E023DB000B435360364A53684A
:10105000F0218B43A1680B4353602368DB072DD538
:101060006368012B1ED0022B22D02F4A12689207F0
:1010700053D52D494A680320824313434B60FFF741
:1010800005FC0600284B5B680C221A4063689B0035
:101090009A4213D0FFF7FAFB801B244B9842F1D9F8
:1010A000032035E0204A12689203E2D401202FE0A9
:1010B0001D4A12689201DCD4012029E0194B1A68FC
:1010C00001231340AB4209D916490B68012293430F
:1010D0002B430B600B681A40AA4220D123685B07A0
:1010E00006D5114A536812490B40E1680B4353601F
:1010F000FFF752FF0C4B5A6812090F2313400D4A99
:10110000D35CD8400C4B18600320FFF77BFB00201A
:1011100070BD0120FCE70120FAE70120F8E701207B
:10112000F6E7C0460020024000100240881300008D
:10113000FFF8FFFF681B00080000002070B582B0B8
:1011400004000368DB0337D53D4BDB69DB0049D482
:101150003B4AD169802040050143D161D3690340F6
:101160000193019B0125374B1B68DB053CD5344BB4
:101170001A6AC0239B00110019401A4213D06268FA
:1011800013408B420FD02E4B186A2F4A02401E6A22
:101190008021490231431962196A2C4E314019628B
:1011A0001A62C30734D4264A136A27490B40616880
:1011B0000B431362012D3AD02368DB0706D5204A82
:1011C000136B03218B43A1680B43136323689B06B6
:1011D00032D51B4A136B10218B43E1680B43136319
:1011E00000202AE00025BEE7164A116880235B0034
:1011F0000B431360FFF74AFB0600124B1B68DB052D
:10120000B5D4FFF743FB801B6428F6D9032014E014
:10121000FFF73CFB06000A4B1B6A9B07C3D4FFF792
:1012200035FB801B0A4B9842F5D9032005E0D369B2
:1012300008490B40D361BFE7002002B070BDC04633
:101240000010024000700040FFFCFFFFFFFFFEFFA8
:1012500088130000FFFFFFEF30B5036A01229343BC
:101260000362036A426884697325AC430D682C43AA
:101270000225AB438D682B43114DA84205D0114D7B
:10128000A84202D0104DA84205D10825AB43CD6835
:101290002B430425AB430A4DA84205D0094DA84273
:1012A00002D0094DA84205D1084D2A404D692A4374
:1012B0008D692A43426084614A684263036230BD9B
:1012C000002C01400044014000480140FFFCFFFFAA
:1012D00070B5036A184A13400362036A4468C2691E
:1012E0007325AA430E681643144A13408A681202F3
:1012F0001343134A904216D0114A904205D0114A26
:10130000904202D0104A904207D1104A22404C69C4
:10131000240114438A6915012C434460C6614A685C
:10132000C263036270BD0A4A1A40CB681B021343B2
:10133000084A1340E0E7C046FFFEFFFFFFFDFFFF46
:10134000002C01400044014000480140FFCFFFFF56
:10135000FFF7FFFFFFFBFFFF30B5036A114A1340A1
:101360000362036A4568C2690F4C22400C6824027C
:1013700022430E4C1C408B681B0323430C4CA042A1
:1013800005D00C4CA04202D00B4CA04204D10B4C17
:1013900025404C69A40125434560C2614A68026446
:1013A000036230BDFFEFFFFFFF8CFFFFFFDFFFFF9A
:1013B000002C01400044014000480140FFBFFFFFF6
:1013C00030B5036A046A0125AC4304628469EF35D1
:1013D000AC43120122430A24A3430B4382610362FC
:1013E00030BD000030B5036A1024A3430362846952
:1013F000036A054D2C4012032243A024A343090194
:1014000019438261016230BDFF0FFFFF83687022C4
:1014100093430B4307210B438360704770470000E1
:1014200003681A4A904202D0194A904203D17022AE
:1014300093434A681343154A90420BD0144A904292
:1014400008D0144A904205D0134A904202D0134A61
:10145000904203D1124A1340CA6813438022934337
:101460004A69134303608B68C3620B688362074B4E
:10147000984205D0084B984202D0084B984201D1BF
:101480000B690363012343617047C046002C014090
:10149000000400400020004000440140004801409A
:1014A000FFFCFFFF70B5041E26D03D23C35C002B5C
:1014B0001CD03D2502236355210001C9FFF7B0FF71
:1014C00001234622A354083AA3540132A354013203
:1014D000A3540132A3540132A3540132A354013264
:1014E000A3540132A3546355002070BD3C33002245
:1014F000C254FFF711F9DCE70120F6E770B5041ECE
:1015000026D03D23C35C002B1CD03D250223635510
:10151000210001C9FFF784FF01234622A354083AA2
:10152000A3540132A3540132A3540132A354013213
:10153000A3540132A3540132A3540132A35463557E
:10154000002070BD3C330022C254FFF767FFDCE788
:101550000120F6E730B5036A102293430362036A61
:1015600045688469164A14400A681202144320220E
:1015700093438A6812011343124A904216D0114ACB
:10158000904205D0104A904202D0104A904207D1B2
:101590000F4A2A404D69AD0015438A6992001543F0
:1015A000456084614A688263036230BD8022934350
:1015B0001A00CB681B01134340229343DFE7C04668
:1015C000FF8CFFFF002C0140004401400048014017
:1015D000FFF3FFFF70B504000D003C23C35C012B3B
:1015E00000D16AE03C230121C154082A50D01CD804
:1015F000002A38D0042A16D129000068FFF7AAFF74
:101600002268916980231B010B43936122689369CF
:101610002B490B40936121688B692A69120213439D
:101620008B6100201BE0080019E00C2A16D129006C
:101630000068FFF791FE2268D16980231B010B43EC
:10164000D3612268D3691E490B40D3612168CB69FD
:101650002A6912021343CB61002000E001203C23E1
:101660000022E25470BD29000068FFF7F5FD2268F2
:10167000936908210B4393612268936904398B4372
:1016800093612268936929690B4393610020E6E71F
:1016900029000068FFF71CFE2268D36908210B436C
:1016A000D3612268D36904398B43D3612268D3693B
:1016B00029690B43D3610020D1E70220D2E7C0465D
:1016C000FFFBFFFF30B58468034D2C401B02134322
:1016D0000B432343836030BDFF00FFFF10B50400C0
:1016E0003C23C35C012B00D178E03C230122C2548F
:1016F00001330132C2540268936839480340936051
:101700000B68602B50D02AD8402B58D00CD9502BC6
:1017100023D1CA6849682068FFF752FE502120682B
:10172000FFF774FE002005E0202B0ED009D9302BE6
:101730000BD001203D230122E254013B0022E25460
:1017400010BD002B01D0102B05D119002068FFF728
:101750005DFE0020EEE70120ECE70120EAE78022B1
:101760005201934236D08022920193420DD1CB6830
:101770004A6889682068FFF7A5FF2268916880237E
:10178000DB010B4393600020D4E7702B24D1CB689E
:101790004A6889682068FFF795FF22689368772177
:1017A0000B4393600020C5E7CA6849682068FFF7CB
:1017B00019FE60212068FFF729FE0020BAE7CA68F9
:1017C00049682068FFF7FCFD40212068FFF71EFEF6
:1017D0000020AFE70020ADE70120ABE70220AFE734
:1017E0008800FFFF10B51F23194001248C40036AB5
:1017F000A3430362036A8A401343036210BD0000DF
:1018000010B5040000292CD13E23C35C013B5A1EB5
:101810009341DBB2002B58D100293BD13E33022249
:10182000E25401222068FFF7DDFF2368294A934232
:1018300005D0294A934202D0284A934204D1596CD8
:10184000802212020A435A642368224A934231D00A
:10185000234A93422ED01A6801210A431A600020BD
:1018600034E0042908D008290DD04123C35C013B92
:101870005A1E9341DBB2CDE73F23C35C013B5A1EA6
:101880009341DBB2C6E74023C35C013B5A1E934140
:10189000DBB2BFE7042905D0082907D04123022283
:1018A000E254BEE73F230222E254BAE74023022279
:1018B000E254B6E7996807220A40062A07D01A6858
:1018C00001210A431A60002000E0012010BD002021
:1018D000FCE7C046002C01400044014000480140A4
:1018E0000004004030B53C23C35C012B21D03C23D5
:1018F0000122C25401330132C25403685A689C6801
:101900007025AA430D682A435A6003680A4A934225
:1019100002D00A4A934204D1802294434A68144375
:101920009C603D230122C254013B0022C25400208E
:1019300030BD0220FCE7C046002C014000040040FE
:1019400070B50C4D0C4E761BB61005D0002408CD9A
:1019500001349847A642FAD100F0EAF8074D084E44
:10196000761BB61005D0002408CD01349847A64256
:10197000FAD170BDA41B0008A41B0008A41B00081A
:10198000AC1B0008F0B5050083074AD0541E002A9E
:1019900044D003000322CEB202E00135013C3DD326
:1019A00001332E701342F8D1032C2FD9FF220A40A5
:1019B000150215432A0415430F2C35D92700103F73
:1019C0003F093E01B4461E001A00103666441560F9
:1019D00055609560D5601032B242F8D10F260C22C6
:1019E00001373F012640DB193700224217D03E1F46
:1019F000B608B400A4461A001C1D644420C2A242CA
:101A0000FCD103240136B6009B193C40002C05D0C4
:101A1000C9B21C19197001339C42FBD1F0BD3400CE
:101A2000F4E714000300BFE72700E0E7034B10B51D
:101A3000002B02D0024800F005F810BD00000000A5
:101A4000551A000810B5010000230022002000F004
:101A500019F810BD70B5074D074C641BA41005D0D4
:101A6000013CA300EB589847002CF9D100F066F830
:101A700070BDC046AC1B0008B01B00087047C046D4
:101A80007047C046F0B5D6464F464646C0B5264FCD
:101A900082B006003868924698468946FFF7EEFF06
:101AA000224B1B680193A423019A5B00D558002D9B
:101AB0002ED06C681F2C30DC002E0FD1631C6B60A5
:101AC0004B460234A40038686351FFF7D9FF002069
:101AD00002B0E0BCBA46B146A846F0BD88225146E5
:101AE0002800A300EB189950873AA2408930FF30B4
:101AF0000168114301608421404649005850022E7C
:101B0000DCD12B008D33FF3319680A431A60D5E707
:101B100015004D35FF35D550CBE73868FFF7B0FFDE
:101B200001204042D4E7C04638040020A01B000832
:101B3000F8B5C046F8BC08BC9E467047F8B5C0462C
:081B4000F8BC08BC9E4670478A
:101B480086030008920300089E030008AA03000801
:101B5800B6030008C2030008CE030008DA03000831
:101B68000000000000000000010203040607080945
:101B780002030405060708090A0B0C0D0E0F1010C6
:101B8800000000000102030405060708090A0B0CFF
:0C1B98000D0E0F100000000010000020D7
:081BA4002D1A0008E9000008F9
:041BAC00C10000086C
:101BB00000127A0001000000040000000000000094
:101BC00000000000FC02002064030020CC03002081
:101BD0000000000000000000000000000000000005
:101BE00000000000000000000000000000000000F5
:101BF00000000000000000000000000000000000E5
:101C000000000000000000000000000000000000D4
:101C100000000000000000000000000000000000C4
:101C200000000000000000000000000000000000B4
:101C300000000000000000000000000000000000A4
:101C40000000000000000000000000000000000094
:101C50000000000000000000000000000000000084
:101C60000000000000000000010000000000000073
:101C70000E33CDAB34126DE6ECDE05000B00000038
:101C80000000000000000000000000000000000054
:101C90000000000000000000000000000000000044
:101CA0000000000000000000000000000000000034
:101CB0000000000000000000000000000000000024
:0C1FE0000000000000000000A804002029
:04000005080007B137
:00000001FF
